:100000000C943A000C944C000C944C000C944C0052
:100010000C944C000C944C000C944C000C947907FC
:100020000C944C000C944C000C944C000C944C0020
:100030000C944C000C944C000C944C000C944C0010
:100040000C944C000C944C000C944C000C944C0000
:100050000C944C005E006100640067006A006D0053
:1000600070007300760079007C007F0082008500BC
:1000700088008B0011241FBECFE5D8E0DEBFCDBFC6
:1000800020E0A0E6B0E001C01D92A73AB207E1F778
:100090000E94C6060C94AE0B0C94000089EF90E011
:1000A0000197F1F700C00000089590E080319105BC
:1000B000A0F5FC01E65DFF4F0C94010A8FE382BBC3
:1000C00008958CE082BB089586E782BB08958EE593
:1000D00082BB08958DE482BB08958BE582BB0895B1
:1000E0008BE782BB08958EE082BB08958FE782BBC9
:1000F00008958FE582BB08958FE682BB089589E756
:1001000082BB089583E382BB089580E682BB089595
:100110008DE682BB089587E482BB089584EA86BF9A
:1001200006B607FEFDCF089583B984E886BF06B6FC
:1001300007FEFDCF089584EC86BF06B607FEFDCF0F
:1001400083B1089584E886BF06B607FEFDCF83B16C
:10015000089584E986BF08950E948E0080E70E947A
:1001600094008EEB0E9494008CEA0E94940080E040
:100170000E9494000E94A9008FE19EE40197F1F78C
:1001800000C0000008950E948E0080E70E94940045
:100190008CEA0E94940083E30E94940080E00E9415
:1001A00094000E94A9008FE19EE40197F1F700C03E
:1001B00000000895CF92DF92EF92FF92CF93DF93EA
:1001C0000E948E0081E70E949400C0E0D0E007C04A
:1001D0000E949B00FE01E558FF4F80832196C530A9
:1001E000D105B4F30E94A200CBE7D0E08D838B81D0
:1001F0008F7090E0A0E0B0E0BC01552744279C81BF
:10020000892F90E0A0E0B0E0BA2FA92F982F88277F
:10021000842B952BA62BB72B2D81822B80939000BE
:1002200090939100A0939200B093930060919000FE
:100230007091910080919200909193000E94A80883
:1002400020E030E040E855E30E94840920E030E0FF
:1002500048E453E40E94840920E030E048E452E49A
:100260000E94940760936E0070936F0080937000FB
:100270009093710060916E0070916F00809170009A
:100280009091710020E030E040E251E40E940108CA
:100290000E94730860938B00C0906E00D0906F0036
:1002A000E0907000F090710080918B0090E0BC01B4
:1002B000660F771F880F991F880F991F880F991F46
:1002C000680F791F072E000C880B990B0E94AA0853
:1002D0009B01AC01C701B6010E9494070E947308FC
:1002E0006093A600898190E0A0E0B0E0AC01BD0180
:1002F000032E3CE0440F551F661F771F3A95D1F738
:10030000302D9A81892F90E0A0E0B0E0880F991FEE
:10031000AA1FBB1F880F991FAA1FBB1F880F991FF9
:10032000AA1FBB1F880F991FAA1FBB1F842B952BC9
:10033000A62BB72B2B8122952F70822B80939E00AA
:1003400090939F00A093A000B093A10060919E00A5
:1003500070919F008091A0009091A1000E94A80838
:1003600020E030E040E855E30E94840920E030E0DE
:1003700048EC52E40E94840960938C0070938D00D5
:1003800080938E0090938F0060918C0070918D000F
:1003900080918E0090918F0020E030E040E251E4A7
:1003A0000E9401080E94730860938400C0908C0032
:1003B000D0908D00E0908E00F0908F0080918400AE
:1003C00090E0BC01660F771F880F991F880F991F57
:1003D000880F991F680F791F072E000C880B990B47
:1003E0000E94AA089B01AC01C701B6010E949407B4
:1003F0000E94730860936A00DF91CF91FF90EF90A5
:10040000DF90CF9008950E948E008EEE0E9494009F
:1004100084EF0E94940087E20E9494000E94A90049
:100420000E948E008EEE0E94940085EF0E94940040
:1004300080E00E9494000E94A9000895EF92FF922C
:100440001F93CF93DF93CDB7DEB768970FB6F894BD
:10045000DEBF0FBECDBF0E948E008EEE0E949400C4
:1004600088E80E9494000E948E008FEE0E94940003
:1004700010E00CC0E12EF12C0E949B00E1E0F0E0C6
:10048000EC0FFD1FEE0DFF1D80831F5F173190F3F2
:100490000E94A200182F0E94A9008A8190E0982F44
:1004A00088272981822B90936900809368008C8132
:1004B00090E0982F88272B81822B90936D0080935A
:1004C0006C008E8190E0982F88272D81822B90934D
:1004D000970080939600888590E0982F88272F8139
:1004E000822B90938600809385008A8590E0982FD8
:1004F00088272985822B90937300809372008C85C6
:1005000090E0982F88272B85822B909388008093EA
:1005100087008E8590E0982F88272D85822B9093D9
:10052000750080937400888990E0982F88272F8524
:10053000822B90937A00809379008A8990E0982F9B
:1005400088272989822B90939900809398008C8921
:1005500090E0982F88272B89822B909367008093B7
:1005600066008E8990E0982F88272D89822B9093A2
:100570008A0080938900812F90E0982F88272F8907
:10058000822B909395008093940068960FB6F89410
:10059000DEBF0FBECDBFDF91CF911F91FF90EF90D7
:1005A00008952F923F924F925F926F927F928F9217
:1005B0009F92AF92BF92CF92DF92EF92FF920F93F2
:1005C0001F93CF93DF93CDB7DEB76E970FB6F89436
:1005D000DEBF0FBECDBF0E948E008EEE0E94940043
:1005E00087EF0E9494000E948E008FEE0E9494007C
:1005F000F12C1F2D0CC0E12EF12C0E949B00E1E09C
:10060000F0E0EC0FFD1FEE0DFF1D80831F5F153026
:1006100090F30E94A200182F0E94A900898190E007
:10062000A0E0B0E0AC01BD01032E3CE0440F551F3B
:10063000661F771F3A95D1F7302D9A81892F90E068
:10064000A0E0B0E0880F991FAA1FBB1F880F991F59
:10065000AA1FBB1F880F991FAA1FBB1F880F991FB6
:10066000AA1FBB1F842B952BA62BB72B2B81229562
:100670002F70AC01BD01422B4F8B588F698F7A8F41
:10068000CC80D12CE12CF12CB701A601032E3CE04B
:10069000440F551F661F771F3A95D1F7302D8D8176
:1006A000C82ED12CE12CF12CCC0CDD1CEE1CFF1C37
:1006B000CC0CDD1CEE1CFF1CCC0CDD1CEE1CFF1C4E
:1006C000CC0CDD1CEE1CFF1CC42AD52AE62AF72A16
:1006D00012951F70C12AB701A601689412F8769589
:1006E0006795579547951694D1F7409068005090BC
:1006F0006900612C712CD301C201880F991FAA1FB8
:10070000BB1F9A01AB01281B390B4A0B5B0BA09155
:100710006C00B0916D000E94120A4B015C01072E23
:100720007BE0B694A794979487947A95D1F7702D2F
:10073000D701C601689413F8B695A7959795879544
:100740001694D1F7BC01CD01641975098609970982
:100750009B01AC010E94F1099B01AC01012E1CE040
:1007600056954795379527951A95D1F7102DA09155
:100770009600B09197000E94120ADC01CB01072E6F
:100780007EE0B695A795979587957A95D1F7702DC8
:10079000880D991DAA1DBB1D8093A2009093A300F4
:1007A000A093A400B093A5006C017D01FF0CCC08C0
:1007B000DC2C7601282F392F4A2F5B2F6C2D7C2DB6
:1007C0008C2D9C2D345F41405109610971098109CB
:1007D00091092F83388749875A87262E372E482E2E
:1007E000592EA22EB32EC42ED52EE62EF72E082F6C
:1007F000192F0E941A0A2B873C874D875E876F87C7
:10080000788B898B9A8BB0909900A09098001B2DC3
:10081000110F110BC12ED12EE12EF12E012F0E94AE
:100820001A0A2B8B3C8B4D8B5E8B662E772E882E77
:10083000992EB0907A00A09079001B2D110F110B0A
:10084000C12ED12EE12EF12E012F2F813885498521
:100850005A85622D732D842D952D0E941A0A01E16F
:100860000E944A0BA22EB32EC42ED52EE62EF72EB2
:10087000082F192F2B893C894D895E89662D772D8C
:10088000882D992D0E94810B622E732E842E952E19
:10089000B62FA72FF82FE92F309175002091740003
:1008A000932F990F990B492F592F692F792F892F42
:1008B00003E20E944A0BA22EB32EC42ED52EE62EA2
:1008C000F72E082F192F262D372D482D592D6B2F38
:1008D0007A2F8F2F9E2F0E94810B2B8B3C8B4D8B61
:1008E0005E8B6B8F7C8F8D8F9E8FB0908800A090D9
:1008F00087001B2D110F110BC12ED12EE12EF12ED1
:10090000012F2B853C854D855E856F85788989898A
:100910009A890E941A0A08E00E94630B2B873C8781
:100920004D875E87662E772E882E992EB0907300A5
:10093000A09072001B2D110F110BC12ED12EE12E94
:10094000F12E012F2F81388549855A85622D732D0F
:10095000842D952D0E941A0A0CE00E944A0BA22EAB
:10096000B32EC42ED52EE62EF72E082F192F2B8549
:100970003C854D855E85662D772D882D992D0E94AD
:10098000810B70588F4F9F4F2090850030908600CC
:10099000A22CB32CC12CD12CE12CF12C00E010E0C6
:1009A0000E941A0A01E20E94630B222E332E442E6B
:1009B000552E662E772E882E992EA0E00E94930B3E
:1009C00009F4CBC180E090E0A0E1B0E02F89388D40
:1009D000498D5A8D821B930BA40BB50B5C016D01E5
:1009E000282F3B2D4C2D5D2D60E070E080E090E0E5
:1009F0000FE10E944A0BAB88BC88CD88DE88EB8C67
:100A0000FC8C0D8D1E8D0E948A0B0F2EF5E3AF2EF0
:100A1000F02D0F2EFCE0BF2EF02DC12CD12CE12C9F
:100A2000F12C00E010E00E941A0AA22CB32CC42C76
:100A3000D52CE62CF72C082D192D0E94750A2F8332
:100A4000388749875A876B877C878D879E87F09187
:100A50009500A0919400EF2FEE0FEE0B0DE00E9499
:100A6000630B222E332E442E552E662E772E882E83
:100A7000992EA22EB32EC42ED52EE62EF72E082F99
:100A8000192F2A2F3F2F4E2F5E2F6E2F7E2F8E2F46
:100A90009E2F0E941A0AA22EB32EC42ED52EE62E09
:100AA000F72E082F192F222D332D442D552D662D6D
:100AB000772D882D992D0E941A0A09E10E94630B57
:100AC000522E432E342E252E6F87788B898B9A8B4E
:100AD000B0908A00A09089001B2D110F110BC12E20
:100AE000D12EE12EF12E012F2F81388549855A858F
:100AF0006B857C858D859E850E941A0A03E10E9484
:100B0000630B622E732E842E952EB62FA72FF82FEF
:100B1000E92F2F81388549855A856B857C858D85A0
:100B20009E85A52CB42CC32CD22CEF84F88809897F
:100B30001A890E94810BA22EB32EC42ED52EE62E2A
:100B4000F72E082F192F262D372D482D592D6B2FB5
:100B50007A2F8F2F9E2F0E94810B08E00E94630B3B
:100B6000622E732E842E952EB62FA72FF82FE92FE5
:100B70003091670020916600932F990F990B492FB0
:100B8000592F692F792F892F04E00E944A0BA22E3A
:100B9000B32EC42ED52EE62EF72E082F192F262D74
:100BA000372D482D592D6B2F7A2F8F2F9E2F0E9476
:100BB000810B0E94A20820E030E048EC56E40E943D
:100BC000010860939A0070939B0080939C0090931F
:100BD0009D0060919A0070919B0080919C00909183
:100BE0009D0020E030E04AE754E40E9401080E94A2
:100BF00073086093770080909A0090909B00A0907B
:100C00009C00B0909D00809177000F2EF8EEEF2EA3
:100C1000F3E0FF2EF02D8E9DB0018F9D700D1124FD
:100C2000072E000C880B990B0E94AA089B01AC01AF
:100C3000C501B4010E94940720E030E048EC52E482
:100C40000E9401080E9473086093760080909A00C9
:100C500090909B00A0909C00B0909D0080917700A8
:100C60008E9DB0018F9D700D1124072E000C880BF6
:100C7000990B0E94AA089B01AC01C501B4010E9416
:100C800094074B015C016091760014E6169FB00159
:100C90001124072E000C880B990B0E94AA089B01B7
:100CA000AC01C501B4010E94940720E030E040E2AD
:100CB00051E40E9401080E94730860936B008090C9
:100CC0009A0090909B00A0909C00B0909D00809115
:100CD00077008E9DB0018F9D700D1124072E000CA2
:100CE000880B990B0E94AA089B01AC01C501B401B5
:100CF0000E9494076B017C0160917600169FB00101
:100D00001124072E000C880B990B0E94AA089B0146
:100D1000AC01C701B6010E9494076B017C01809170
:100D20006B0090E0BC01660F771F880F991F880F3A
:100D3000991F880F991F680F791F072E000C880BC9
:100D4000990B0E94AA089B01AC01C701B6010E9441
:100D500094070E947308609378006E960FB6F8941B
:100D6000DEBF0FBECDBFDF91CF911F910F91FF90DE
:100D7000EF90DF90CF90BF90AF909F908F907F903B
:100D80006F905F904F903F902F9008958FEF81BBB1
:100D900087BB11B887E180B98FB58C7F8FBD8EB5C9
:100DA00088608EBD8EB585608EBD8EB58D7F8EBD03
:100DB00080E49FE09BBD8ABD89B7806189BF78943C
:100DC0000E94AC000E94C3000E94DA000E941E0232
:100DD0000E9403020E94D10280916000882359F092
:100DE00012BA8FE088BB0E94C3000E94DA000E9402
:100DF000D1021092600080916100811126C012BA68
:100E00008EE088BB80918B000E9455000E944E00AE
:100E1000CFE0C8BB12BA8DE088BB8091A6000E94CB
:100E200055000E944E00C8BB12BA8BE088BB87E415
:100E300082BB0E944E00C8BB12BA87E088BB83E326
:100E400082BB0E944E00C8BBC7CF80916100813039
:100E500031F512BA8EE088BB809184000E94550063
:100E60000E944E00CFE0C8BB12BA8DE088BB8091D3
:100E70006A000E9455000E944E00C8BB12BA8BE067
:100E800088BB80E682BB0E944E00C8BB12BA87E0D6
:100E900088BB8DE682BB0E944E00C8BB9DCF12BAB4
:100EA0008EE088BB809177000E9455000E944E0022
:100EB000CFE0C8BB12BA8DE088BB809176000E945B
:100EC00055000E944E00C8BB12BA8BE088BB8091CF
:100ED0006B000E9455000E944E00C8BB12BA87E00A
:100EE00088BB809178000E9455000E944E00C8BBCC
:100EF00073CF1F920F920FB60F9211248F93809190
:100F00006100823030F4809161008F5F80936100D6
:100F100005C01092610081E0809360008F910F9076
:100F20000FBE0F901F9018955058BB27AA270E94FC
:100F3000AC070C944A090E943C0938F00E9443090E
:100F400020F039F49F3F19F426F40C9429090EF48B
:100F5000E095E7FB0C942309E92F0E945B0958F305
:100F6000BA17620773078407950720F079F4A6F58E
:100F70000C947D090EF4E0950B2EBA2FA02D0B01D9
:100F8000B90190010C01CA01A0011124FF27591BCE
:100F900099F0593F50F4503E68F11A16F040A22FD4
:100FA000232F342F4427585FF3CF46953795279545
:100FB000A795F0405395C9F77EF41F16BA0B620B44
:100FC000730B840BBAF09150A1F0FF0FBB1F661F8B
:100FD000771F881FC2F70EC0BA0F621F731F841FCE
:100FE00048F4879577956795B795F7959E3F08F0F4
:100FF000B0CF9395880F08F09927EE0F97958795B6
:1010000008950E9415080C944A090E94430958F05B
:101010000E943C0940F029F45F3F29F00C94230919
:1010200051110C947E090C9429090E945B0968F304
:101030009923B1F3552391F3951B550BBB27AA2791
:1010400062177307840738F09F5F5F4F220F331FCB
:10105000441FAA1FA9F335D00E2E3AF0E0E832D093
:1010600091505040E695001CCAF72BD0FE2F29D096
:10107000660F771F881FBB1F261737074807AB0768
:10108000B0E809F0BB0B802DBF01FF2793585F4FDD
:101090003AF09E3F510578F00C9423090C947E0998
:1010A0005F3FE4F3983ED4F3869577956795B795BF
:1010B000F7959F5FC9F7880F911D9695879597F9CA
:1010C0000895E1E0660F771F881FBB1F6217730743
:1010D0008407BA0720F0621B730B840BBA0BEE1F58
:1010E00088F7E09508950E94630988F09F5798F06B
:1010F000B92F9927B751B0F0E1F0660F771F881F1D
:10110000991F1AF0BA95C9F714C0B13091F00E9436
:101110007D09B1E008950C947D09672F782F882709
:10112000B85F39F0B93FCCF3869577956795B3955D
:10113000D9F73EF490958095709561957F4F8F4FCC
:101140009F4F089597FB16F40E942C090C94E60813
:10115000E89409C097FB3EF4909580957095619551
:101160007F4F8F4F9F4F9923A9F0F92F96E9BB2707
:101170009395F695879577956795B795F111F8CF83
:10118000FAF4BB0F11F460FF1BC06F5F7F4F8F4FEE
:101190009F4F16C0882311F096E911C0772321F0E4
:1011A0009EE8872F762F05C0662371F096E8862F7C
:1011B00070E060E02AF09A95660F771F881FDAF7D3
:1011C000880F9695879597F90895E894F92F96EBEF
:1011D000FF2381F0121613061406440B9395F6951F
:1011E00087957795679557954040FF23B9F71BC0C2
:1011F00099270895882351F49850D2F7872B762F9A
:10120000652F542F432F322F20E0B1F3121613060F
:101210001406440B88233AF09A95440F551F661F15
:10122000771F881FCAF755234AF4440F551F11F43E
:1012300060FF04C06F5F7F4F8F4F9F4F880F969561
:10124000879597F9089597F99F6780E870E060E0C7
:1012500008959FEF80EC0895909580957095609526
:1012600050954095309521953F4F4F4F5F4F6F4FB1
:101270007F4F8F4F9F4F089500240A94161617062C
:1012800018060906089500240A9412161306140677
:1012900005060895092E0394000C11F4882352F0DA
:1012A000BB0F40F4BF2B11F460FF04C06F5F7F4F92
:1012B0008F4F9F4F089557FD9058440F551F59F079
:1012C0005F3F71F04795880F97FB991F61F09F3F33
:1012D00079F087950895121613061406551FF2CF5C
:1012E0004695F1DF08C0161617061806991FF1CFAC
:1012F00086957105610508940895E894BB276627D3
:101300007727CB0197F908950E9497090C944A0911
:101310000E943C0938F00E94430920F0952311F007
:101320000C9423090C94290911240C947E090E9421
:101330005B0970F3959FC1F3950F50E0551F629FB5
:10134000F001729FBB27F00DB11D639FAA27F00D1E
:10135000B11DAA1F649F6627B00DA11D661F829F45
:101360002227B00DA11D621F739FB00DA11D621F2A
:10137000839FA00D611D221F749F3327A00D611D47
:10138000231F849F600D211D822F762F6A2F112429
:101390009F5750409AF0F1F088234AF0EE0FFF1F5C
:1013A000BB1F661F771F881F91505040A9F79E3FB3
:1013B000510580F00C9423090C947E095F3FE4F3FF
:1013C000983ED4F3869577956795B795F795E79509
:1013D0009F5FC1F7FE2B880F911D9695879597F912
:1013E0000895DB018F939F930E94070ABF91AF91ED
:1013F000A29F800D911DA39F900DB29F900D11246F
:101400000895EE0FFF1F0590F491E02D09940E94BE
:101410009F0BA59F900DB49F900DA49F800D911DD3
:1014200011240895B7FF0C94070A0E94070A821B33
:10143000930B0895DF93CF931F930F939A9DF02DF5
:10144000219FF00D8B9DF00D8A9DE02DF10D039FE6
:10145000F00D029FE00DF11D4E9DE00DF11D5E9D12
:10146000F00D4F9DF00D7F936F93BF92AF925F93FE
:101470004F93D5010E949F0B8B01AC01D7010E94B5
:101480009F0BEB01E80FF91FD6010E946A0A2F910A
:101490003F91D6010E949F0BC60FD71FE81FF91F6F
:1014A000AF91BF910E946A0A2F913F910E949F0BBA
:1014B000C60FD71FE81FF91FD6010E949F0BE60F2A
:1014C000F71F9801BE01CF0111240F911F91CF91F9
:1014D000DF9108950E949F0B460F571FC81FD91F09
:1014E00008F431960895689401C0E894F92FF12B1F
:1014F00012F00C94A70AA0E0B0E0E1E8FAE00C9446
:10150000190B092E059422F40E94030B112392F467
:10151000F0E80F26FFEFE094F09400951095B0945A
:10152000C094D094A194BF0ACF0ADF0AEF0AFF0A41
:101530000F0B1F0B0E94B20A07FC0E94030BCDB7D2
:10154000DEB7ECE00C94350B689401C0E8948F9200
:101550009F92CF93DF930E94B20ADF91CF919F9029
:101560008F90089588249924F401E401B0E49F93B6
:10157000AA279A158B049C04ED05FE05CF05D0071C
:10158000A10798F4AD2FDC2FCF2FFE2FE92D982C3B
:10159000892E982F872F762F652F542F432F322F88
:1015A0002227B85031F7BF9127C01B2EBF91BB2710
:1015B000220F331F441F551F661F771F881F991F57
:1015C000881C991CEE1FFF1FCC1FDD1FAA1FBB1F0D
:1015D0008A149B04EC05FD05CE05DF05A007B107C5
:1015E00048F08A189B08EC09FD09CE09DF09A00B19
:1015F000B10B21601A94E1F62EF49401AF01BE0103
:10160000CD01000C0895609570958095909530956A
:101610004095509521953F4F4F4F5F4F6F4F7F4FF4
:101620008F4F9F4F08952F923F924F925F926F92EC
:101630007F928F929F92AF92BF92CF92DF92EF9262
:10164000FF920F931F93CF93DF93CDB7DEB7CA1BE3
:10165000DB0B0FB6F894DEBF0FBECDBF09942A880E
:10166000398848885F846E847D848C849B84AA84B6
:10167000B984C884DF80EE80FD800C811B81AA8143
:10168000B981CE0FD11D0FB6F894DEBF0FBECDBF0E
:10169000ED0108950F93083090F0982F872F762F43
:1016A000652F542F432F322F22270850F4CF220FBB
:1016B000331F441F551F661F771F881F991F0A95E8
:1016C000B2F70F91089597FB10F8169400080F9346
:1016D000083098F00850232F342F452F562F672FAE
:1016E000782F892F902DF4CF05949795879577952E
:1016F000679557954795379527950A95AAF70F91BE
:1017000008952A0D3B1D4C1D5D1D6E1D7F1D801F04
:10171000911F08952A193B094C095D096E097F093B
:10172000800B910B08950024A7FD00942A17300523
:101730004005500560057005800590050895A29F3D
:10174000B001B39FC001A39F700D811D1124911D95
:10175000B29F700D811D1124911D0895F894FFCF43
:00000001FF
