S0170000777973776965746C61637A5F4932432E737265632A
S11300000C9484000C9499000C9499000C9499001D
S11300100C9499000C9499000C9499000C949900F8
S11300200C9499000C9499000C9499000C949900E8
S11300300C9499000C9499000C9499000C949900D8
S11300400C9499000C9499000C9499000C949900C8
S11300500C9499006E0176017601760176017601A1
S113006076017601760176017601760176016C01DE
S1130070720176012601780128012A012C012E0142
S113008030013201340136017001760176017601C6
S1130090760176017601380176013A0176013C0158
S11300A03E014001420178014401460148017601C4
S11300B04A0126014C0176014E0150017601760178
S11300C07601760176017601760176017601760174
S11300D074017601760176015201540156017601CC
S11300E0760158015A015C017601760176017601A8
S11300F05E016001760162016401760166016801B6
S11301007601760176016A0111241FBECFE5D8E09D
S1130110DEBFCDBF10E0A0E6B0E0EAE6F4E002C046
S113012005900D92A437B107D9F70E94B4010C943D
S113013033020C9400008BB382608BBB8BB3816061
S11301408BBB00C08BB38D7F8BBB00C08BB38E7F0A
S11301508BBB08958BB38E7F8BBB00C08BB38D7F1D
S11301608BBB00C08BB381608BBB00C08BB3826040
S11301708BBB089520E015C080FF04C09BB3926040
S11301809BBB03C09BB39D7F9BBB9BB391609BBBFD
S113019000C000009BB39E7F9BBB00C000008695FF
S11301A02F5F283048F38AB38D7F8ABB8BB382607C
S11301B08BBB8BB381608BBB00C000C000008BB3D2
S11301C08E7F8BBB8AB382608ABB08950F931F9383
S11301D0CF938C010E949B0080E40E94BA000E948D
S11301E0AA000E949B0080EC0E94BA00C0E008C0F4
S11301F0F801EC0FF11D808180580E94BA00CF5F96
S1130200C430B0F30E94AA00CF911F910F910895BA
S1130210CF93883008F087E08770C82FC8686111D1
S113022001C0C77F0E949B008C2F0E94BA000E94CD
S1130230AA00CF91089590E0FC01B097EA35F1054A
S113024008F054C0E65DFF4F0C942D028FE308952F
S11302508BE508958FE4089586E608958DE6089564
S11302608DE7089587E008958FE708958FE6089550
S113027087E7089589E3089589E7089581E7089554
S11302808DE3089586E708958EE1089585E708953E
S113029088E3089587E3089583E7089581E3089543
S11302A08DE608958CE7089588E508958EE5089510
S11302B08FE6089584E7089584E0089584E5089519
S11302C08CE5089587E6089580E5089588E7089504
S11302D08CE108958EE6089580E4089580E0089501
S11302E080E808958FEF089583E6089580E00895E7
S11302F086E00895CF92DF92EF92FF921F93CF93FF
S1130300DF9300D000D0CDB7DEB76C0110E01AC087
S1130310F601E10FF11D8081882361F0E12EF12CBB
S11303200E941B01E1E0F0E0EC0FFD1FEE0DFF1D4C
S1130330808307C0E1E0F0E0EC0FFD1FE10FF11D49
S113034010821F5F143020F3CE0101960E94E60054
S11303500F900F900F900F90DF91CF911F91FF900E
S1130360EF90DF90CF900895CF93DF93CDB7DEB7B2
S113037064970FB6F894DEBF0FBECDBF8AB3836017
S11303808ABB8BB383608BBB85E0E0E6F0E0DE01E3
S1130390119601900D928A95E1F785E0E5E6F0E08B
S11303A0DE01169601900D928A95E1F785E0EAE662
S11303B0F0E0DE011B9601900D928A95E1F785E04D
S11303C0EFE6F0E0DE01509601900D928A95E1F798
S11303D061E080E00E940801CE0101960E947A014A
S11303E02FE38DE093E0215080409040E1F700C07E
S11303F00000CE0140960E947A0161E082E00E94F2
S113040008012FE38DE093E0215080409040E1F714
S113041000C00000CE0106960E947A0161E084E0EB
S11304200E9408012FE38DE093E02150804090402A
S1130430E1F700C00000CE010B960E947A0161E052
S113044086E00E9408012FE38DE093E02150804074
S11304509040E1F700C00000BBCFEE0FFF1F0590F6
S10D0460F491E02D0994F894FFCF05
S113046A313233340033325E430034357248003853
S107047A38383800D2
S9030000FC
