:100000000C942A000C9434000C9434000C943400AA
:100010000C9434000C9434000C9434000C94340090
:100020000C9434000C9434000C9434000C94340080
:100030000C9434000C9434000C9434000C94340070
:100040000C9434000C9434000C9434000C94340060
:100050000C94340011241FBECFE5D8E0DEBFCDBF25
:100060000E9436000C944E000C9400008FEF8ABB67
:100070008FEF8BBB2FE38DE093E0215080409040C9
:10008000E1F700C000001BBA2FE38DE093E02150A0
:1000900080409040E1F700C00000EACFF894FFCF25
:00000001FF
